{
  "address": "0x23553d771F357acCE3cF42c24c9aAa37B5cD0c38",
  "abi": [
    {
      "inputs": [
        {
          "internalType": "address",
          "name": "_vrfCoordinator",
          "type": "address"
        },
        {
          "internalType": "bytes32",
          "name": "gasLane",
          "type": "bytes32"
        },
        {
          "internalType": "uint256",
          "name": "susbscriptionId",
          "type": "uint256"
        },
        {
          "internalType": "uint32",
          "name": "callbackGasLimit",
          "type": "uint32"
        },
        {
          "internalType": "uint256",
          "name": "mintFee",
          "type": "uint256"
        },
        {
          "internalType": "string[3]",
          "name": "dogTokenUris",
          "type": "string[3]"
        }
      ],
      "stateMutability": "nonpayable",
      "type": "constructor"
    },
    {
      "inputs": [
        {
          "internalType": "address",
          "name": "sender",
          "type": "address"
        },
        {
          "internalType": "uint256",
          "name": "tokenId",
          "type": "uint256"
        },
        {
          "internalType": "address",
          "name": "owner",
          "type": "address"
        }
      ],
      "name": "ERC721IncorrectOwner",
      "type": "error"
    },
    {
      "inputs": [
        {
          "internalType": "address",
          "name": "operator",
          "type": "address"
        },
        {
          "internalType": "uint256",
          "name": "tokenId",
          "type": "uint256"
        }
      ],
      "name": "ERC721InsufficientApproval",
      "type": "error"
    },
    {
      "inputs": [
        {
          "internalType": "address",
          "name": "approver",
          "type": "address"
        }
      ],
      "name": "ERC721InvalidApprover",
      "type": "error"
    },
    {
      "inputs": [
        {
          "internalType": "address",
          "name": "operator",
          "type": "address"
        }
      ],
      "name": "ERC721InvalidOperator",
      "type": "error"
    },
    {
      "inputs": [
        {
          "internalType": "address",
          "name": "owner",
          "type": "address"
        }
      ],
      "name": "ERC721InvalidOwner",
      "type": "error"
    },
    {
      "inputs": [
        {
          "internalType": "address",
          "name": "receiver",
          "type": "address"
        }
      ],
      "name": "ERC721InvalidReceiver",
      "type": "error"
    },
    {
      "inputs": [
        {
          "internalType": "address",
          "name": "sender",
          "type": "address"
        }
      ],
      "name": "ERC721InvalidSender",
      "type": "error"
    },
    {
      "inputs": [
        {
          "internalType": "uint256",
          "name": "tokenId",
          "type": "uint256"
        }
      ],
      "name": "ERC721NonexistentToken",
      "type": "error"
    },
    {
      "inputs": [
        {
          "internalType": "address",
          "name": "have",
          "type": "address"
        },
        {
          "internalType": "address",
          "name": "want",
          "type": "address"
        }
      ],
      "name": "OnlyCoordinatorCanFulfill",
      "type": "error"
    },
    {
      "inputs": [
        {
          "internalType": "address",
          "name": "have",
          "type": "address"
        },
        {
          "internalType": "address",
          "name": "owner",
          "type": "address"
        },
        {
          "internalType": "address",
          "name": "coordinator",
          "type": "address"
        }
      ],
      "name": "OnlyOwnerOrCoordinator",
      "type": "error"
    },
    {
      "inputs": [],
      "name": "RandomIpfsNft__AlreadyInitialized",
      "type": "error"
    },
    {
      "inputs": [],
      "name": "RandomIpfsNft__NeedMoreETHSent",
      "type": "error"
    },
    {
      "inputs": [],
      "name": "RandomIpfsNft__NotOwner",
      "type": "error"
    },
    {
      "inputs": [],
      "name": "RandomIpfsNft__RangeOutOfBounds",
      "type": "error"
    },
    {
      "inputs": [],
      "name": "RandomIpfsNft__TransferFailed",
      "type": "error"
    },
    {
      "inputs": [],
      "name": "ZeroAddress",
      "type": "error"
    },
    {
      "anonymous": false,
      "inputs": [
        {
          "indexed": true,
          "internalType": "address",
          "name": "owner",
          "type": "address"
        },
        {
          "indexed": true,
          "internalType": "address",
          "name": "approved",
          "type": "address"
        },
        {
          "indexed": true,
          "internalType": "uint256",
          "name": "tokenId",
          "type": "uint256"
        }
      ],
      "name": "Approval",
      "type": "event"
    },
    {
      "anonymous": false,
      "inputs": [
        {
          "indexed": true,
          "internalType": "address",
          "name": "owner",
          "type": "address"
        },
        {
          "indexed": true,
          "internalType": "address",
          "name": "operator",
          "type": "address"
        },
        {
          "indexed": false,
          "internalType": "bool",
          "name": "approved",
          "type": "bool"
        }
      ],
      "name": "ApprovalForAll",
      "type": "event"
    },
    {
      "anonymous": false,
      "inputs": [
        {
          "indexed": false,
          "internalType": "address",
          "name": "vrfCoordinator",
          "type": "address"
        }
      ],
      "name": "CoordinatorSet",
      "type": "event"
    },
    {
      "anonymous": false,
      "inputs": [
        {
          "indexed": true,
          "internalType": "uint256",
          "name": "tokenId",
          "type": "uint256"
        },
        {
          "indexed": true,
          "internalType": "enum RandomIpfsNft.Breed",
          "name": "breed",
          "type": "uint8"
        },
        {
          "indexed": true,
          "internalType": "address",
          "name": "minter",
          "type": "address"
        }
      ],
      "name": "NftMinted",
      "type": "event"
    },
    {
      "anonymous": false,
      "inputs": [
        {
          "indexed": true,
          "internalType": "uint256",
          "name": "requestId",
          "type": "uint256"
        },
        {
          "indexed": true,
          "internalType": "address",
          "name": "requester",
          "type": "address"
        }
      ],
      "name": "NftRequested",
      "type": "event"
    },
    {
      "anonymous": false,
      "inputs": [
        {
          "indexed": true,
          "internalType": "address",
          "name": "from",
          "type": "address"
        },
        {
          "indexed": true,
          "internalType": "address",
          "name": "to",
          "type": "address"
        }
      ],
      "name": "OwnershipTransferRequested",
      "type": "event"
    },
    {
      "anonymous": false,
      "inputs": [
        {
          "indexed": true,
          "internalType": "address",
          "name": "from",
          "type": "address"
        },
        {
          "indexed": true,
          "internalType": "address",
          "name": "to",
          "type": "address"
        }
      ],
      "name": "OwnershipTransferred",
      "type": "event"
    },
    {
      "anonymous": false,
      "inputs": [
        {
          "indexed": true,
          "internalType": "address",
          "name": "from",
          "type": "address"
        },
        {
          "indexed": true,
          "internalType": "address",
          "name": "to",
          "type": "address"
        },
        {
          "indexed": true,
          "internalType": "uint256",
          "name": "tokenId",
          "type": "uint256"
        }
      ],
      "name": "Transfer",
      "type": "event"
    },
    {
      "inputs": [],
      "name": "acceptOwnership",
      "outputs": [],
      "stateMutability": "nonpayable",
      "type": "function"
    },
    {
      "inputs": [
        {
          "internalType": "address",
          "name": "to",
          "type": "address"
        },
        {
          "internalType": "uint256",
          "name": "tokenId",
          "type": "uint256"
        }
      ],
      "name": "approve",
      "outputs": [],
      "stateMutability": "nonpayable",
      "type": "function"
    },
    {
      "inputs": [
        {
          "internalType": "address",
          "name": "owner",
          "type": "address"
        }
      ],
      "name": "balanceOf",
      "outputs": [
        {
          "internalType": "uint256",
          "name": "",
          "type": "uint256"
        }
      ],
      "stateMutability": "view",
      "type": "function"
    },
    {
      "inputs": [
        {
          "internalType": "uint256",
          "name": "tokenId",
          "type": "uint256"
        }
      ],
      "name": "getApproved",
      "outputs": [
        {
          "internalType": "address",
          "name": "",
          "type": "address"
        }
      ],
      "stateMutability": "view",
      "type": "function"
    },
    {
      "inputs": [],
      "name": "getAuthor",
      "outputs": [
        {
          "internalType": "string",
          "name": "",
          "type": "string"
        }
      ],
      "stateMutability": "pure",
      "type": "function"
    },
    {
      "inputs": [
        {
          "internalType": "uint256",
          "name": "moddedRng",
          "type": "uint256"
        }
      ],
      "name": "getBreedFromModdedRng",
      "outputs": [
        {
          "internalType": "enum RandomIpfsNft.Breed",
          "name": "",
          "type": "uint8"
        }
      ],
      "stateMutability": "pure",
      "type": "function"
    },
    {
      "inputs": [],
      "name": "getChanceArray",
      "outputs": [
        {
          "internalType": "uint256[3]",
          "name": "",
          "type": "uint256[3]"
        }
      ],
      "stateMutability": "pure",
      "type": "function"
    },
    {
      "inputs": [
        {
          "internalType": "uint256",
          "name": "index",
          "type": "uint256"
        }
      ],
      "name": "getDogTokenUris",
      "outputs": [
        {
          "internalType": "string",
          "name": "",
          "type": "string"
        }
      ],
      "stateMutability": "view",
      "type": "function"
    },
    {
      "inputs": [],
      "name": "getInitialized",
      "outputs": [
        {
          "internalType": "bool",
          "name": "",
          "type": "bool"
        }
      ],
      "stateMutability": "view",
      "type": "function"
    },
    {
      "inputs": [],
      "name": "getMintFee",
      "outputs": [
        {
          "internalType": "uint256",
          "name": "",
          "type": "uint256"
        }
      ],
      "stateMutability": "view",
      "type": "function"
    },
    {
      "inputs": [],
      "name": "getTokenCounter",
      "outputs": [
        {
          "internalType": "uint256",
          "name": "",
          "type": "uint256"
        }
      ],
      "stateMutability": "view",
      "type": "function"
    },
    {
      "inputs": [
        {
          "internalType": "address",
          "name": "owner",
          "type": "address"
        },
        {
          "internalType": "address",
          "name": "operator",
          "type": "address"
        }
      ],
      "name": "isApprovedForAll",
      "outputs": [
        {
          "internalType": "bool",
          "name": "",
          "type": "bool"
        }
      ],
      "stateMutability": "view",
      "type": "function"
    },
    {
      "inputs": [],
      "name": "name",
      "outputs": [
        {
          "internalType": "string",
          "name": "",
          "type": "string"
        }
      ],
      "stateMutability": "view",
      "type": "function"
    },
    {
      "inputs": [],
      "name": "owner",
      "outputs": [
        {
          "internalType": "address",
          "name": "",
          "type": "address"
        }
      ],
      "stateMutability": "view",
      "type": "function"
    },
    {
      "inputs": [
        {
          "internalType": "uint256",
          "name": "tokenId",
          "type": "uint256"
        }
      ],
      "name": "ownerOf",
      "outputs": [
        {
          "internalType": "address",
          "name": "",
          "type": "address"
        }
      ],
      "stateMutability": "view",
      "type": "function"
    },
    {
      "inputs": [
        {
          "internalType": "uint256",
          "name": "requestId",
          "type": "uint256"
        },
        {
          "internalType": "uint256[]",
          "name": "randomWords",
          "type": "uint256[]"
        }
      ],
      "name": "rawFulfillRandomWords",
      "outputs": [],
      "stateMutability": "nonpayable",
      "type": "function"
    },
    {
      "inputs": [],
      "name": "requestNft",
      "outputs": [
        {
          "internalType": "uint256",
          "name": "requestId",
          "type": "uint256"
        }
      ],
      "stateMutability": "payable",
      "type": "function"
    },
    {
      "inputs": [],
      "name": "s_vrfCoordinator",
      "outputs": [
        {
          "internalType": "contract IVRFCoordinatorV2Plus",
          "name": "",
          "type": "address"
        }
      ],
      "stateMutability": "view",
      "type": "function"
    },
    {
      "inputs": [
        {
          "internalType": "address",
          "name": "from",
          "type": "address"
        },
        {
          "internalType": "address",
          "name": "to",
          "type": "address"
        },
        {
          "internalType": "uint256",
          "name": "tokenId",
          "type": "uint256"
        }
      ],
      "name": "safeTransferFrom",
      "outputs": [],
      "stateMutability": "nonpayable",
      "type": "function"
    },
    {
      "inputs": [
        {
          "internalType": "address",
          "name": "from",
          "type": "address"
        },
        {
          "internalType": "address",
          "name": "to",
          "type": "address"
        },
        {
          "internalType": "uint256",
          "name": "tokenId",
          "type": "uint256"
        },
        {
          "internalType": "bytes",
          "name": "data",
          "type": "bytes"
        }
      ],
      "name": "safeTransferFrom",
      "outputs": [],
      "stateMutability": "nonpayable",
      "type": "function"
    },
    {
      "inputs": [
        {
          "internalType": "address",
          "name": "operator",
          "type": "address"
        },
        {
          "internalType": "bool",
          "name": "approved",
          "type": "bool"
        }
      ],
      "name": "setApprovalForAll",
      "outputs": [],
      "stateMutability": "nonpayable",
      "type": "function"
    },
    {
      "inputs": [
        {
          "internalType": "address",
          "name": "_vrfCoordinator",
          "type": "address"
        }
      ],
      "name": "setCoordinator",
      "outputs": [],
      "stateMutability": "nonpayable",
      "type": "function"
    },
    {
      "inputs": [
        {
          "internalType": "bytes4",
          "name": "interfaceId",
          "type": "bytes4"
        }
      ],
      "name": "supportsInterface",
      "outputs": [
        {
          "internalType": "bool",
          "name": "",
          "type": "bool"
        }
      ],
      "stateMutability": "view",
      "type": "function"
    },
    {
      "inputs": [],
      "name": "symbol",
      "outputs": [
        {
          "internalType": "string",
          "name": "",
          "type": "string"
        }
      ],
      "stateMutability": "view",
      "type": "function"
    },
    {
      "inputs": [
        {
          "internalType": "uint256",
          "name": "_tokenId",
          "type": "uint256"
        }
      ],
      "name": "tokenURI",
      "outputs": [
        {
          "internalType": "string",
          "name": "",
          "type": "string"
        }
      ],
      "stateMutability": "view",
      "type": "function"
    },
    {
      "inputs": [
        {
          "internalType": "address",
          "name": "from",
          "type": "address"
        },
        {
          "internalType": "address",
          "name": "to",
          "type": "address"
        },
        {
          "internalType": "uint256",
          "name": "tokenId",
          "type": "uint256"
        }
      ],
      "name": "transferFrom",
      "outputs": [],
      "stateMutability": "nonpayable",
      "type": "function"
    },
    {
      "inputs": [
        {
          "internalType": "address",
          "name": "to",
          "type": "address"
        }
      ],
      "name": "transferOwnership",
      "outputs": [],
      "stateMutability": "nonpayable",
      "type": "function"
    },
    {
      "inputs": [],
      "name": "withdraw",
      "outputs": [],
      "stateMutability": "nonpayable",
      "type": "function"
    }
  ],
  "transactionHash": "0x32939200bb072a34659a4e58a2b0c11b3bc339cb65e954a7e52efeae8d4efb17",
  "args": [
    "0x9DdfaCa8183c41ad55329BdeeD9F6A8d53168B1B",
    "0x787d74caea10b2b357790d5b5247c2f63d1d91572a9846f780606e4d953677ae",
    "105752341827482583864337633755448387871087161753199591116132016548161125172134",
    "300000",
    "50000000000000000",
    [
      "ipfs://QmaVkBn2tKmjbhphU7eyztbvSQU5EXDdqRyXZtRhSGgJGo",
      "ipfs://QmYQC5aGZu2PTH8XzbJrbDnvhj3gVs7ya33H9mqUNvST3d",
      "ipfs://QmZYmH5iDbD6v3U2ixoVAjioSzvWJszDzYdbeCLquGSpVm"
    ]
  ],
  "numDeployments": 1,
  "solcInputHash": "40d7dd07a8f90c23b0ea0f22c5a5bd76",
  "bytecode": "0x6101006040523480156200001257600080fd5b50604051620046023803806200460283398181016040528101906200003891906200092c565b6040518060400160405280600f81526020017f52616e646f6d2049706673204e465400000000000000000000000000000000008152506040518060400160405280600381526020017f4e4952000000000000000000000000000000000000000000000000000000000081525087338060008073ffffffffffffffffffffffffffffffffffffffff168273ffffffffffffffffffffffffffffffffffffffff16036200011a576040517f08c379a0000000000000000000000000000000000000000000000000000000008152600401620001119062000a48565b60405180910390fd5b816000806101000a81548173ffffffffffffffffffffffffffffffffffffffff021916908373ffffffffffffffffffffffffffffffffffffffff160217905550600073ffffffffffffffffffffffffffffffffffffffff168173ffffffffffffffffffffffffffffffffffffffff1614620001a157620001a081620002fd60201b60201c565b5b505050600073ffffffffffffffffffffffffffffffffffffffff168173ffffffffffffffffffffffffffffffffffffffff16036200020b576040517fd92e233d00000000000000000000000000000000000000000000000000000000815260040160405180910390fd5b80600260006101000a81548173ffffffffffffffffffffffffffffffffffffffff021916908373ffffffffffffffffffffffffffffffffffffffff1602179055505081600390816200025e919062000cab565b50806004908162000270919062000cab565b50505084608081815250508360a081815250508263ffffffff1660c08163ffffffff16815250508160e08181525050620002b0816200042c60201b60201c565b33600960006101000a81548173ffffffffffffffffffffffffffffffffffffffff021916908373ffffffffffffffffffffffffffffffffffffffff16021790555050505050505062000e04565b3373ffffffffffffffffffffffffffffffffffffffff168173ffffffffffffffffffffffffffffffffffffffff16036200036e576040517f08c379a0000000000000000000000000000000000000000000000000000000008152600401620003659062000de2565b60405180910390fd5b80600160006101000a81548173ffffffffffffffffffffffffffffffffffffffff021916908373ffffffffffffffffffffffffffffffffffffffff1602179055508073ffffffffffffffffffffffffffffffffffffffff1660008054906101000a900473ffffffffffffffffffffffffffffffffffffffff1673ffffffffffffffffffffffffffffffffffffffff167fed8889f560326eb138920d842192f0eb3dd22b4f139c87a2c57538e05bae127860405160405180910390a350565b600d60009054906101000a900460ff161562000474576040517fddf8bf7000000000000000000000000000000000000000000000000000000000815260040160405180910390fd5b80600c90600362000487929190620004a6565b506001600d60006101000a81548160ff02191690831515021790555050565b828054828255906000526020600020908101928215620004f3579160200282015b82811115620004f2578251829081620004e1919062000cab565b5091602001919060010190620004c7565b5b50905062000502919062000506565b5090565b5b808211156200052a57600081816200052091906200052e565b5060010162000507565b5090565b5080546200053c9062000aa4565b6000825580601f1062000550575062000571565b601f01602090049060005260206000209081019062000570919062000574565b5b50565b5b808211156200058f57600081600090555060010162000575565b5090565b6000604051905090565b600080fd5b600080fd5b600073ffffffffffffffffffffffffffffffffffffffff82169050919050565b6000620005d482620005a7565b9050919050565b620005e681620005c7565b8114620005f257600080fd5b50565b6000815190506200060681620005db565b92915050565b6000819050919050565b62000621816200060c565b81146200062d57600080fd5b50565b600081519050620006418162000616565b92915050565b6000819050919050565b6200065c8162000647565b81146200066857600080fd5b50565b6000815190506200067c8162000651565b92915050565b600063ffffffff82169050919050565b6200069d8162000682565b8114620006a957600080fd5b50565b600081519050620006bd8162000692565b92915050565b600080fd5b6000601f19601f8301169050919050565b7f4e487b7100000000000000000000000000000000000000000000000000000000600052604160045260246000fd5b6200071382620006c8565b810181811067ffffffffffffffff82111715620007355762000734620006d9565b5b80604052505050565b60006200074a62000593565b905062000758828262000708565b919050565b600067ffffffffffffffff8211156200077b576200077a620006d9565b5b602082029050919050565b600080fd5b600080fd5b600067ffffffffffffffff821115620007ae57620007ad620006d9565b5b620007b982620006c8565b9050602081019050919050565b60005b83811015620007e6578082015181840152602081019050620007c9565b60008484015250505050565b600062000809620008038462000790565b6200073e565b9050828152602081018484840111156200082857620008276200078b565b5b62000835848285620007c6565b509392505050565b600082601f830112620008555762000854620006c3565b5b815162000867848260208601620007f2565b91505092915050565b60006200088762000881846200075d565b6200073e565b90508060208402830185811115620008a457620008a362000786565b5b835b81811015620008f257805167ffffffffffffffff811115620008cd57620008cc620006c3565b5b808601620008dc89826200083d565b85526020850194505050602081019050620008a6565b5050509392505050565b600082601f830112620009145762000913620006c3565b5b60036200092384828562000870565b91505092915050565b60008060008060008060c087890312156200094c576200094b6200059d565b5b60006200095c89828a01620005f5565b96505060206200096f89828a0162000630565b95505060406200098289828a016200066b565b94505060606200099589828a01620006ac565b9350506080620009a889828a016200066b565b92505060a087015167ffffffffffffffff811115620009cc57620009cb620005a2565b5b620009da89828a01620008fc565b9150509295509295509295565b600082825260208201905092915050565b7f43616e6e6f7420736574206f776e657220746f207a65726f0000000000000000600082015250565b600062000a30601883620009e7565b915062000a3d82620009f8565b602082019050919050565b6000602082019050818103600083015262000a638162000a21565b9050919050565b600081519050919050565b7f4e487b7100000000000000000000000000000000000000000000000000000000600052602260045260246000fd5b6000600282049050600182168062000abd57607f821691505b60208210810362000ad35762000ad262000a75565b5b50919050565b60008190508160005260206000209050919050565b60006020601f8301049050919050565b600082821b905092915050565b60006008830262000b3d7fffffffffffffffffffffffffffffffffffffffffffffffffffffffffffffffff8262000afe565b62000b49868362000afe565b95508019841693508086168417925050509392505050565b6000819050919050565b600062000b8c62000b8662000b808462000647565b62000b61565b62000647565b9050919050565b6000819050919050565b62000ba88362000b6b565b62000bc062000bb78262000b93565b84845462000b0b565b825550505050565b600090565b62000bd762000bc8565b62000be481848462000b9d565b505050565b5b8181101562000c0c5762000c0060008262000bcd565b60018101905062000bea565b5050565b601f82111562000c5b5762000c258162000ad9565b62000c308462000aee565b8101602085101562000c40578190505b62000c5862000c4f8562000aee565b83018262000be9565b50505b505050565b600082821c905092915050565b600062000c806000198460080262000c60565b1980831691505092915050565b600062000c9b838362000c6d565b9150826002028217905092915050565b62000cb68262000a6a565b67ffffffffffffffff81111562000cd25762000cd1620006d9565b5b62000cde825462000aa4565b62000ceb82828562000c10565b600060209050601f83116001811462000d23576000841562000d0e578287015190505b62000d1a858262000c8d565b86555062000d8a565b601f19841662000d338662000ad9565b60005b8281101562000d5d5784890151825560018201915060208501945060208101905062000d36565b8683101562000d7d578489015162000d79601f89168262000c6d565b8355505b6001600288020188555050505b505050505050565b7f43616e6e6f74207472616e7366657220746f2073656c66000000000000000000600082015250565b600062000dca601783620009e7565b915062000dd78262000d92565b602082019050919050565b6000602082019050818103600083015262000dfd8162000dbb565b9050919050565b60805160a05160c05160e0516137bd62000e4560003960008181610ec601526112cf015260006113c9015260006113980152600061137201526137bd6000f3fe6080604052600436106101b75760003560e01c80637a5caab3116100ec578063a5faa1251161008a578063c87b56dd11610064578063c87b56dd146105ed578063e985e9c51461062a578063ee89dab414610667578063f2fde38b14610692576101b7565b8063a5faa1251461057b578063aa152491146105a6578063b88d4fde146105c4576101b7565b806395d89b41116100c657806395d89b41146104bf5780639eccacf6146104ea578063a22cb46514610515578063a51cccf31461053e576101b7565b80637a5caab3146104405780638da5cb5b1461046b5780638ea9811714610496576101b7565b80633ccfd60b116101595780636352211e116101335780636352211e146103845780636e02007d146103c157806370a08231146103ec57806379ba509714610429576101b7565b80633ccfd60b1461031957806342842e0e146103305780635dacf5f414610359576101b7565b8063095ea7b311610195578063095ea7b3146102615780631fe543e31461028a57806323b872dd146102b35780633af25975146102dc576101b7565b806301ffc9a7146101bc57806306fdde03146101f9578063081812fc14610224575b600080fd5b3480156101c857600080fd5b506101e360048036038101906101de919061269a565b6106bb565b6040516101f091906126e2565b60405180910390f35b34801561020557600080fd5b5061020e61079d565b60405161021b919061278d565b60405180910390f35b34801561023057600080fd5b5061024b600480360381019061024691906127e5565b61082f565b6040516102589190612853565b60405180910390f35b34801561026d57600080fd5b506102886004803603810190610283919061289a565b61084b565b005b34801561029657600080fd5b506102b160048036038101906102ac919061293f565b610861565b005b3480156102bf57600080fd5b506102da60048036038101906102d5919061299f565b610927565b005b3480156102e857600080fd5b5061030360048036038101906102fe91906127e5565b610a29565b604051610310919061278d565b60405180910390f35b34801561032557600080fd5b5061032e610ad9565b005b34801561033c57600080fd5b506103576004803603810190610352919061299f565b610c0c565b005b34801561036557600080fd5b5061036e610c2c565b60405161037b9190612a9d565b60405180910390f35b34801561039057600080fd5b506103ab60048036038101906103a691906127e5565b610c57565b6040516103b89190612853565b60405180910390f35b3480156103cd57600080fd5b506103d6610c69565b6040516103e39190612ac7565b60405180910390f35b3480156103f857600080fd5b50610413600480360381019061040e9190612ae2565b610c73565b6040516104209190612ac7565b60405180910390f35b34801561043557600080fd5b5061043e610d2d565b005b34801561044c57600080fd5b50610455610ec2565b6040516104629190612ac7565b60405180910390f35b34801561047757600080fd5b50610480610eea565b60405161048d9190612853565b60405180910390f35b3480156104a257600080fd5b506104bd60048036038101906104b89190612ae2565b610f13565b005b3480156104cb57600080fd5b506104d46110f4565b6040516104e1919061278d565b60405180910390f35b3480156104f657600080fd5b506104ff611186565b60405161050c9190612b6e565b60405180910390f35b34801561052157600080fd5b5061053c60048036038101906105379190612bb5565b6111ac565b005b34801561054a57600080fd5b50610565600480360381019061056091906127e5565b6111c2565b6040516105729190612c6c565b60405180910390f35b34801561058757600080fd5b5061059061128e565b60405161059d919061278d565b60405180910390f35b6105ae6112cb565b6040516105bb9190612ac7565b60405180910390f35b3480156105d057600080fd5b506105eb60048036038101906105e69190612db7565b611517565b005b3480156105f957600080fd5b50610614600480360381019061060f91906127e5565b611534565b604051610621919061278d565b60405180910390f35b34801561063657600080fd5b50610651600480360381019061064c9190612e3a565b6115d9565b60405161065e91906126e2565b60405180910390f35b34801561067357600080fd5b5061067c61166d565b60405161068991906126e2565b60405180910390f35b34801561069e57600080fd5b506106b960048036038101906106b49190612ae2565b611684565b005b60007f80ac58cd000000000000000000000000000000000000000000000000000000007bffffffffffffffffffffffffffffffffffffffffffffffffffffffff1916827bffffffffffffffffffffffffffffffffffffffffffffffffffffffff1916148061078657507f5b5e139f000000000000000000000000000000000000000000000000000000007bffffffffffffffffffffffffffffffffffffffffffffffffffffffff1916827bffffffffffffffffffffffffffffffffffffffffffffffffffffffff1916145b80610796575061079582611698565b5b9050919050565b6060600380546107ac90612ea9565b80601f01602080910402602001604051908101604052809291908181526020018280546107d890612ea9565b80156108255780601f106107fa57610100808354040283529160200191610825565b820191906000526020600020905b81548152906001019060200180831161080857829003601f168201915b5050505050905090565b600061083a82611702565b506108448261178a565b9050919050565b61085d82826108586117c7565b6117cf565b5050565b600260009054906101000a900473ffffffffffffffffffffffffffffffffffffffff1673ffffffffffffffffffffffffffffffffffffffff163373ffffffffffffffffffffffffffffffffffffffff16146109175733600260009054906101000a900473ffffffffffffffffffffffffffffffffffffffff166040517f1cf993f400000000000000000000000000000000000000000000000000000000815260040161090e929190612eda565b60405180910390fd5b6109228383836117e1565b505050565b600073ffffffffffffffffffffffffffffffffffffffff168273ffffffffffffffffffffffffffffffffffffffff16036109995760006040517f64a0ae920000000000000000000000000000000000000000000000000000000081526004016109909190612853565b60405180910390fd5b60006109ad83836109a86117c7565b611999565b90508373ffffffffffffffffffffffffffffffffffffffff168173ffffffffffffffffffffffffffffffffffffffff1614610a23578382826040517f64283d7b000000000000000000000000000000000000000000000000000000008152600401610a1a93929190612f03565b60405180910390fd5b50505050565b6060600c8281548110610a3f57610a3e612f3a565b5b906000526020600020018054610a5490612ea9565b80601f0160208091040260200160405190810160405280929190818152602001828054610a8090612ea9565b8015610acd5780601f10610aa257610100808354040283529160200191610acd565b820191906000526020600020905b815481529060010190602001808311610ab057829003601f168201915b50505050509050919050565b600960009054906101000a900473ffffffffffffffffffffffffffffffffffffffff1673ffffffffffffffffffffffffffffffffffffffff163373ffffffffffffffffffffffffffffffffffffffff1614610b60576040517f612c935700000000000000000000000000000000000000000000000000000000815260040160405180910390fd5b600047905060003373ffffffffffffffffffffffffffffffffffffffff1682604051610b8b90612f9a565b60006040518083038185875af1925050503d8060008114610bc8576040519150601f19603f3d011682016040523d82523d6000602084013e610bcd565b606091505b5050905080610c08576040517fca7e25b700000000000000000000000000000000000000000000000000000000815260040160405180910390fd5b5050565b610c2783838360405180602001604052806000815250611517565b505050565b610c3461260c565b6040518060600160405280600a8152602001602881526020016064815250905090565b6000610c6282611702565b9050919050565b6000600b54905090565b60008073ffffffffffffffffffffffffffffffffffffffff168273ffffffffffffffffffffffffffffffffffffffff1603610ce65760006040517f89c62b64000000000000000000000000000000000000000000000000000000008152600401610cdd9190612853565b60405180910390fd5b600660008373ffffffffffffffffffffffffffffffffffffffff1673ffffffffffffffffffffffffffffffffffffffff168152602001908152602001600020549050919050565b600160009054906101000a900473ffffffffffffffffffffffffffffffffffffffff1673ffffffffffffffffffffffffffffffffffffffff163373ffffffffffffffffffffffffffffffffffffffff1614610dbd576040517f08c379a0000000000000000000000000000000000000000000000000000000008152600401610db490612ffb565b60405180910390fd5b60008060009054906101000a900473ffffffffffffffffffffffffffffffffffffffff169050336000806101000a81548173ffffffffffffffffffffffffffffffffffffffff021916908373ffffffffffffffffffffffffffffffffffffffff1602179055506000600160006101000a81548173ffffffffffffffffffffffffffffffffffffffff021916908373ffffffffffffffffffffffffffffffffffffffff1602179055503373ffffffffffffffffffffffffffffffffffffffff168173ffffffffffffffffffffffffffffffffffffffff167f8be0079c531659141344cd1fd0a4f28419497f9722a3daafe3b4186f6b6457e060405160405180910390a350565b60007f0000000000000000000000000000000000000000000000000000000000000000905090565b60008060009054906101000a900473ffffffffffffffffffffffffffffffffffffffff16905090565b610f1b610eea565b73ffffffffffffffffffffffffffffffffffffffff163373ffffffffffffffffffffffffffffffffffffffff1614158015610fa45750600260009054906101000a900473ffffffffffffffffffffffffffffffffffffffff1673ffffffffffffffffffffffffffffffffffffffff163373ffffffffffffffffffffffffffffffffffffffff1614155b156110135733610fb2610eea565b600260009054906101000a900473ffffffffffffffffffffffffffffffffffffffff166040517f061db9c100000000000000000000000000000000000000000000000000000000815260040161100a9392919061301b565b60405180910390fd5b600073ffffffffffffffffffffffffffffffffffffffff168173ffffffffffffffffffffffffffffffffffffffff1603611079576040517fd92e233d00000000000000000000000000000000000000000000000000000000815260040160405180910390fd5b80600260006101000a81548173ffffffffffffffffffffffffffffffffffffffff021916908373ffffffffffffffffffffffffffffffffffffffff1602179055507fd1a6a14209a385a964d036e404cb5cfb71f4000cdb03c9366292430787261be6816040516110e99190612853565b60405180910390a150565b60606004805461110390612ea9565b80601f016020809104026020016040519081016040528092919081815260200182805461112f90612ea9565b801561117c5780601f106111515761010080835404028352916020019161117c565b820191906000526020600020905b81548152906001019060200180831161115f57829003601f168201915b5050505050905090565b600260009054906101000a900473ffffffffffffffffffffffffffffffffffffffff1681565b6111be6111b76117c7565b8383611bb3565b5050565b6000806000905060006111d3610c2c565b905060005b60038110156112565782851015801561120757508181600381106111ff576111fe612f3a565b5b602002015185105b156112295780600281111561121f5761121e612bf5565b5b9350505050611289565b81816003811061123c5761123b612f3a565b5b60200201519250808061124e90613081565b9150506111d8565b506040517f12806c9d00000000000000000000000000000000000000000000000000000000815260040160405180910390fd5b919050565b60606040518060400160405280600a81526020017f554441592053494e474800000000000000000000000000000000000000000000815250905090565b60007f0000000000000000000000000000000000000000000000000000000000000000341015611327576040517fb90f491000000000000000000000000000000000000000000000000000000000815260040160405180910390fd5b600260009054906101000a900473ffffffffffffffffffffffffffffffffffffffff1673ffffffffffffffffffffffffffffffffffffffff16639b1c385e6040518060c001604052807f000000000000000000000000000000000000000000000000000000000000000081526020017f00000000000000000000000000000000000000000000000000000000000000008152602001600361ffff1681526020017f000000000000000000000000000000000000000000000000000000000000000063ffffffff168152602001600163ffffffff16815260200161141a604051806020016040528060001515815250611d22565b8152506040518263ffffffff1660e01b815260040161143991906131fc565b6020604051808303816000875af1158015611458573d6000803e3d6000fd5b505050506040513d601f19601f8201168201806040525081019061147c9190613233565b905033600a600083815260200190815260200160002060006101000a81548173ffffffffffffffffffffffffffffffffffffffff021916908373ffffffffffffffffffffffffffffffffffffffff1602179055503373ffffffffffffffffffffffffffffffffffffffff16817ff873236e6cc0ecc5be1a9a35c95ee5b8d1ac4cc7bfef0cc5060391d6cc98e26b60405160405180910390a390565b611522848484610927565b61152e84848484611dba565b50505050565b6060600e6000838152602001908152602001600020805461155490612ea9565b80601f016020809104026020016040519081016040528092919081815260200182805461158090612ea9565b80156115cd5780601f106115a2576101008083540402835291602001916115cd565b820191906000526020600020905b8154815290600101906020018083116115b057829003601f168201915b50505050509050919050565b6000600860008473ffffffffffffffffffffffffffffffffffffffff1673ffffffffffffffffffffffffffffffffffffffff16815260200190815260200160002060008373ffffffffffffffffffffffffffffffffffffffff1673ffffffffffffffffffffffffffffffffffffffff16815260200190815260200160002060009054906101000a900460ff16905092915050565b6000600d60009054906101000a900460ff16905090565b61168c611f71565b61169581612001565b50565b60007f01ffc9a7000000000000000000000000000000000000000000000000000000007bffffffffffffffffffffffffffffffffffffffffffffffffffffffff1916827bffffffffffffffffffffffffffffffffffffffffffffffffffffffff1916149050919050565b60008061170e8361212d565b9050600073ffffffffffffffffffffffffffffffffffffffff168173ffffffffffffffffffffffffffffffffffffffff160361178157826040517f7e2732890000000000000000000000000000000000000000000000000000000081526004016117789190612ac7565b60405180910390fd5b80915050919050565b60006007600083815260200190815260200160002060009054906101000a900473ffffffffffffffffffffffffffffffffffffffff169050919050565b600033905090565b6117dc838383600161216a565b505050565b6000600a600085815260200190815260200160002060009054906101000a900473ffffffffffffffffffffffffffffffffffffffff1690506000600b5490506001600b5461182f9190613260565b600b81905550600060648585600081811061184d5761184c612f3a565b5b9050602002013561185e91906132c3565b9050600061186b826111c2565b9050611877848461232f565b61193983600c8360028111156118905761188f612bf5565b5b815481106118a1576118a0612f3a565b5b9060005260206000200180546118b690612ea9565b80601f01602080910402602001604051908101604052809291908181526020018280546118e290612ea9565b801561192f5780601f106119045761010080835404028352916020019161192f565b820191906000526020600020905b81548152906001019060200180831161191257829003601f168201915b505050505061234d565b8373ffffffffffffffffffffffffffffffffffffffff1681600281111561196357611962612bf5565b5b847f826d84de86b9d47351ad75c90b9a8b7211e761e448ccd64623fc26341dd0b8dc60405160405180910390a450505050505050565b6000806119a58461212d565b9050600073ffffffffffffffffffffffffffffffffffffffff168373ffffffffffffffffffffffffffffffffffffffff16146119e7576119e6818486612372565b5b600073ffffffffffffffffffffffffffffffffffffffff168173ffffffffffffffffffffffffffffffffffffffff1614611a7857611a2960008560008061216a565b6001600660008373ffffffffffffffffffffffffffffffffffffffff1673ffffffffffffffffffffffffffffffffffffffff168152602001908152602001600020600082825403925050819055505b600073ffffffffffffffffffffffffffffffffffffffff168573ffffffffffffffffffffffffffffffffffffffff1614611afb576001600660008773ffffffffffffffffffffffffffffffffffffffff1673ffffffffffffffffffffffffffffffffffffffff168152602001908152602001600020600082825401925050819055505b846005600086815260200190815260200160002060006101000a81548173ffffffffffffffffffffffffffffffffffffffff021916908373ffffffffffffffffffffffffffffffffffffffff160217905550838573ffffffffffffffffffffffffffffffffffffffff168273ffffffffffffffffffffffffffffffffffffffff167fddf252ad1be2c89b69c2b068fc378daa952ba7f163c4a11628f55a4df523b3ef60405160405180910390a4809150509392505050565b600073ffffffffffffffffffffffffffffffffffffffff168273ffffffffffffffffffffffffffffffffffffffff1603611c2457816040517f5b08ba18000000000000000000000000000000000000000000000000000000008152600401611c1b9190612853565b60405180910390fd5b80600860008573ffffffffffffffffffffffffffffffffffffffff1673ffffffffffffffffffffffffffffffffffffffff16815260200190815260200160002060008473ffffffffffffffffffffffffffffffffffffffff1673ffffffffffffffffffffffffffffffffffffffff16815260200190815260200160002060006101000a81548160ff0219169083151502179055508173ffffffffffffffffffffffffffffffffffffffff168373ffffffffffffffffffffffffffffffffffffffff167f17307eab39ab6107e8899845ad3d59bd9653f200f220920489ca2b5937696c3183604051611d1591906126e2565b60405180910390a3505050565b60607f92fd13387c7fe7befbc38d303d6468778fb9731bc4583f17d92989c6fcfdeaaa82604051602401611d56919061331f565b604051602081830303815290604052907bffffffffffffffffffffffffffffffffffffffffffffffffffffffff19166020820180517bffffffffffffffffffffffffffffffffffffffffffffffffffffffff83818316178352505050509050919050565b60008373ffffffffffffffffffffffffffffffffffffffff163b1115611f6b578273ffffffffffffffffffffffffffffffffffffffff1663150b7a02611dfe6117c7565b8685856040518563ffffffff1660e01b8152600401611e209493929190613384565b6020604051808303816000875af1925050508015611e5c57506040513d601f19601f82011682018060405250810190611e5991906133e5565b60015b611ee0573d8060008114611e8c576040519150601f19603f3d011682016040523d82523d6000602084013e611e91565b606091505b506000815103611ed857836040517f64a0ae92000000000000000000000000000000000000000000000000000000008152600401611ecf9190612853565b60405180910390fd5b805181602001fd5b63150b7a0260e01b7bffffffffffffffffffffffffffffffffffffffffffffffffffffffff1916817bffffffffffffffffffffffffffffffffffffffffffffffffffffffff191614611f6957836040517f64a0ae92000000000000000000000000000000000000000000000000000000008152600401611f609190612853565b60405180910390fd5b505b50505050565b60008054906101000a900473ffffffffffffffffffffffffffffffffffffffff1673ffffffffffffffffffffffffffffffffffffffff163373ffffffffffffffffffffffffffffffffffffffff1614611fff576040517f08c379a0000000000000000000000000000000000000000000000000000000008152600401611ff69061345e565b60405180910390fd5b565b3373ffffffffffffffffffffffffffffffffffffffff168173ffffffffffffffffffffffffffffffffffffffff160361206f576040517f08c379a0000000000000000000000000000000000000000000000000000000008152600401612066906134ca565b60405180910390fd5b80600160006101000a81548173ffffffffffffffffffffffffffffffffffffffff021916908373ffffffffffffffffffffffffffffffffffffffff1602179055508073ffffffffffffffffffffffffffffffffffffffff1660008054906101000a900473ffffffffffffffffffffffffffffffffffffffff1673ffffffffffffffffffffffffffffffffffffffff167fed8889f560326eb138920d842192f0eb3dd22b4f139c87a2c57538e05bae127860405160405180910390a350565b60006005600083815260200190815260200160002060009054906101000a900473ffffffffffffffffffffffffffffffffffffffff169050919050565b80806121a35750600073ffffffffffffffffffffffffffffffffffffffff168273ffffffffffffffffffffffffffffffffffffffff1614155b156122d75760006121b384611702565b9050600073ffffffffffffffffffffffffffffffffffffffff168373ffffffffffffffffffffffffffffffffffffffff161415801561221e57508273ffffffffffffffffffffffffffffffffffffffff168173ffffffffffffffffffffffffffffffffffffffff1614155b8015612231575061222f81846115d9565b155b1561227357826040517fa9fbf51f00000000000000000000000000000000000000000000000000000000815260040161226a9190612853565b60405180910390fd5b81156122d557838573ffffffffffffffffffffffffffffffffffffffff168273ffffffffffffffffffffffffffffffffffffffff167f8c5be1e5ebec7d5bd14f71427d1e84f3dd0314c0f7b2291e5b200ac8c7c3b92560405160405180910390a45b505b836007600085815260200190815260200160002060006101000a81548173ffffffffffffffffffffffffffffffffffffffff021916908373ffffffffffffffffffffffffffffffffffffffff16021790555050505050565b612349828260405180602001604052806000815250612436565b5050565b80600e6000848152602001908152602001600020908161236d919061368c565b505050565b61237d838383612452565b61243157600073ffffffffffffffffffffffffffffffffffffffff168373ffffffffffffffffffffffffffffffffffffffff16036123f257806040517f7e2732890000000000000000000000000000000000000000000000000000000081526004016123e99190612ac7565b60405180910390fd5b81816040517f177e802f00000000000000000000000000000000000000000000000000000000815260040161242892919061375e565b60405180910390fd5b505050565b6124408383612513565b61244d6000848484611dba565b505050565b60008073ffffffffffffffffffffffffffffffffffffffff168373ffffffffffffffffffffffffffffffffffffffff161415801561250a57508273ffffffffffffffffffffffffffffffffffffffff168473ffffffffffffffffffffffffffffffffffffffff1614806124cb57506124ca84846115d9565b5b8061250957508273ffffffffffffffffffffffffffffffffffffffff166124f18361178a565b73ffffffffffffffffffffffffffffffffffffffff16145b5b90509392505050565b600073ffffffffffffffffffffffffffffffffffffffff168273ffffffffffffffffffffffffffffffffffffffff16036125855760006040517f64a0ae9200000000000000000000000000000000000000000000000000000000815260040161257c9190612853565b60405180910390fd5b600061259383836000611999565b9050600073ffffffffffffffffffffffffffffffffffffffff168173ffffffffffffffffffffffffffffffffffffffff16146126075760006040517f73c6ac6e0000000000000000000000000000000000000000000000000000000081526004016125fe9190612853565b60405180910390fd5b505050565b6040518060600160405280600390602082028036833780820191505090505090565b6000604051905090565b600080fd5b600080fd5b60007fffffffff0000000000000000000000000000000000000000000000000000000082169050919050565b61267781612642565b811461268257600080fd5b50565b6000813590506126948161266e565b92915050565b6000602082840312156126b0576126af612638565b5b60006126be84828501612685565b91505092915050565b60008115159050919050565b6126dc816126c7565b82525050565b60006020820190506126f760008301846126d3565b92915050565b600081519050919050565b600082825260208201905092915050565b60005b8381101561273757808201518184015260208101905061271c565b60008484015250505050565b6000601f19601f8301169050919050565b600061275f826126fd565b6127698185612708565b9350612779818560208601612719565b61278281612743565b840191505092915050565b600060208201905081810360008301526127a78184612754565b905092915050565b6000819050919050565b6127c2816127af565b81146127cd57600080fd5b50565b6000813590506127df816127b9565b92915050565b6000602082840312156127fb576127fa612638565b5b6000612809848285016127d0565b91505092915050565b600073ffffffffffffffffffffffffffffffffffffffff82169050919050565b600061283d82612812565b9050919050565b61284d81612832565b82525050565b60006020820190506128686000830184612844565b92915050565b61287781612832565b811461288257600080fd5b50565b6000813590506128948161286e565b92915050565b600080604083850312156128b1576128b0612638565b5b60006128bf85828601612885565b92505060206128d0858286016127d0565b9150509250929050565b600080fd5b600080fd5b600080fd5b60008083601f8401126128ff576128fe6128da565b5b8235905067ffffffffffffffff81111561291c5761291b6128df565b5b602083019150836020820283011115612938576129376128e4565b5b9250929050565b60008060006040848603121561295857612957612638565b5b6000612966868287016127d0565b935050602084013567ffffffffffffffff8111156129875761298661263d565b5b612993868287016128e9565b92509250509250925092565b6000806000606084860312156129b8576129b7612638565b5b60006129c686828701612885565b93505060206129d786828701612885565b92505060406129e8868287016127d0565b9150509250925092565b600060039050919050565b600081905092915050565b6000819050919050565b612a1b816127af565b82525050565b6000612a2d8383612a12565b60208301905092915050565b6000602082019050919050565b612a4f816129f2565b612a5981846129fd565b9250612a6482612a08565b8060005b83811015612a95578151612a7c8782612a21565b9650612a8783612a39565b925050600181019050612a68565b505050505050565b6000606082019050612ab26000830184612a46565b92915050565b612ac1816127af565b82525050565b6000602082019050612adc6000830184612ab8565b92915050565b600060208284031215612af857612af7612638565b5b6000612b0684828501612885565b91505092915050565b6000819050919050565b6000612b34612b2f612b2a84612812565b612b0f565b612812565b9050919050565b6000612b4682612b19565b9050919050565b6000612b5882612b3b565b9050919050565b612b6881612b4d565b82525050565b6000602082019050612b836000830184612b5f565b92915050565b612b92816126c7565b8114612b9d57600080fd5b50565b600081359050612baf81612b89565b92915050565b60008060408385031215612bcc57612bcb612638565b5b6000612bda85828601612885565b9250506020612beb85828601612ba0565b9150509250929050565b7f4e487b7100000000000000000000000000000000000000000000000000000000600052602160045260246000fd5b60038110612c3557612c34612bf5565b5b50565b6000819050612c4682612c24565b919050565b6000612c5682612c38565b9050919050565b612c6681612c4b565b82525050565b6000602082019050612c816000830184612c5d565b92915050565b600080fd5b7f4e487b7100000000000000000000000000000000000000000000000000000000600052604160045260246000fd5b612cc482612743565b810181811067ffffffffffffffff82111715612ce357612ce2612c8c565b5b80604052505050565b6000612cf661262e565b9050612d028282612cbb565b919050565b600067ffffffffffffffff821115612d2257612d21612c8c565b5b612d2b82612743565b9050602081019050919050565b82818337600083830152505050565b6000612d5a612d5584612d07565b612cec565b905082815260208101848484011115612d7657612d75612c87565b5b612d81848285612d38565b509392505050565b600082601f830112612d9e57612d9d6128da565b5b8135612dae848260208601612d47565b91505092915050565b60008060008060808587031215612dd157612dd0612638565b5b6000612ddf87828801612885565b9450506020612df087828801612885565b9350506040612e01878288016127d0565b925050606085013567ffffffffffffffff811115612e2257612e2161263d565b5b612e2e87828801612d89565b91505092959194509250565b60008060408385031215612e5157612e50612638565b5b6000612e5f85828601612885565b9250506020612e7085828601612885565b9150509250929050565b7f4e487b7100000000000000000000000000000000000000000000000000000000600052602260045260246000fd5b60006002820490506001821680612ec157607f821691505b602082108103612ed457612ed3612e7a565b5b50919050565b6000604082019050612eef6000830185612844565b612efc6020830184612844565b9392505050565b6000606082019050612f186000830186612844565b612f256020830185612ab8565b612f326040830184612844565b949350505050565b7f4e487b7100000000000000000000000000000000000000000000000000000000600052603260045260246000fd5b600081905092915050565b50565b6000612f84600083612f69565b9150612f8f82612f74565b600082019050919050565b6000612fa582612f77565b9150819050919050565b7f4d7573742062652070726f706f736564206f776e657200000000000000000000600082015250565b6000612fe5601683612708565b9150612ff082612faf565b602082019050919050565b6000602082019050818103600083015261301481612fd8565b9050919050565b60006060820190506130306000830186612844565b61303d6020830185612844565b61304a6040830184612844565b949350505050565b7f4e487b7100000000000000000000000000000000000000000000000000000000600052601160045260246000fd5b600061308c826127af565b91507fffffffffffffffffffffffffffffffffffffffffffffffffffffffffffffffff82036130be576130bd613052565b5b600182019050919050565b6000819050919050565b6130dc816130c9565b82525050565b600061ffff82169050919050565b6130f9816130e2565b82525050565b600063ffffffff82169050919050565b613118816130ff565b82525050565b600081519050919050565b600082825260208201905092915050565b60006131458261311e565b61314f8185613129565b935061315f818560208601612719565b61316881612743565b840191505092915050565b600060c08301600083015161318b60008601826130d3565b50602083015161319e6020860182612a12565b5060408301516131b160408601826130f0565b5060608301516131c4606086018261310f565b5060808301516131d7608086018261310f565b5060a083015184820360a08601526131ef828261313a565b9150508091505092915050565b600060208201905081810360008301526132168184613173565b905092915050565b60008151905061322d816127b9565b92915050565b60006020828403121561324957613248612638565b5b60006132578482850161321e565b91505092915050565b600061326b826127af565b9150613276836127af565b925082820190508082111561328e5761328d613052565b5b92915050565b7f4e487b7100000000000000000000000000000000000000000000000000000000600052601260045260246000fd5b60006132ce826127af565b91506132d9836127af565b9250826132e9576132e8613294565b5b828206905092915050565b6132fd816126c7565b82525050565b60208201600082015161331960008501826132f4565b50505050565b60006020820190506133346000830184613303565b92915050565b600082825260208201905092915050565b60006133568261311e565b613360818561333a565b9350613370818560208601612719565b61337981612743565b840191505092915050565b60006080820190506133996000830187612844565b6133a66020830186612844565b6133b36040830185612ab8565b81810360608301526133c5818461334b565b905095945050505050565b6000815190506133df8161266e565b92915050565b6000602082840312156133fb576133fa612638565b5b6000613409848285016133d0565b91505092915050565b7f4f6e6c792063616c6c61626c65206279206f776e657200000000000000000000600082015250565b6000613448601683612708565b915061345382613412565b602082019050919050565b600060208201905081810360008301526134778161343b565b9050919050565b7f43616e6e6f74207472616e7366657220746f2073656c66000000000000000000600082015250565b60006134b4601783612708565b91506134bf8261347e565b602082019050919050565b600060208201905081810360008301526134e3816134a7565b9050919050565b60008190508160005260206000209050919050565b60006020601f8301049050919050565b600082821b905092915050565b60006008830261354c7fffffffffffffffffffffffffffffffffffffffffffffffffffffffffffffffff8261350f565b613556868361350f565b95508019841693508086168417925050509392505050565b600061358961358461357f846127af565b612b0f565b6127af565b9050919050565b6000819050919050565b6135a38361356e565b6135b76135af82613590565b84845461351c565b825550505050565b600090565b6135cc6135bf565b6135d781848461359a565b505050565b5b818110156135fb576135f06000826135c4565b6001810190506135dd565b5050565b601f82111561364057613611816134ea565b61361a846134ff565b81016020851015613629578190505b61363d613635856134ff565b8301826135dc565b50505b505050565b600082821c905092915050565b600061366360001984600802613645565b1980831691505092915050565b600061367c8383613652565b9150826002028217905092915050565b613695826126fd565b67ffffffffffffffff8111156136ae576136ad612c8c565b5b6136b88254612ea9565b6136c38282856135ff565b600060209050601f8311600181146136f657600084156136e4578287015190505b6136ee8582613670565b865550613756565b601f198416613704866134ea565b60005b8281101561372c57848901518255600182019150602085019450602081019050613707565b868310156137495784890151613745601f891682613652565b8355505b6001600288020188555050505b505050505050565b60006040820190506137736000830185612844565b6137806020830184612ab8565b939250505056fea2646970667358221220cdad995fc204a864b11007fa5e40b5081fc820190943a7536993381fe022121964736f6c63430008140033",
  "devdoc": {
    "author": "Uday Singh",
    "errors": {
      "ERC721IncorrectOwner(address,uint256,address)": [
        {
          "details": "Indicates an error related to the ownership over a particular token. Used in transfers.",
          "params": {
            "owner": "Address of the current owner of a token.",
            "sender": "Address whose tokens are being transferred.",
            "tokenId": "Identifier number of a token."
          }
        }
      ],
      "ERC721InsufficientApproval(address,uint256)": [
        {
          "details": "Indicates a failure with the `operator`s approval. Used in transfers.",
          "params": {
            "operator": "Address that may be allowed to operate on tokens without being their owner.",
            "tokenId": "Identifier number of a token."
          }
        }
      ],
      "ERC721InvalidApprover(address)": [
        {
          "details": "Indicates a failure with the `approver` of a token to be approved. Used in approvals.",
          "params": {
            "approver": "Address initiating an approval operation."
          }
        }
      ],
      "ERC721InvalidOperator(address)": [
        {
          "details": "Indicates a failure with the `operator` to be approved. Used in approvals.",
          "params": {
            "operator": "Address that may be allowed to operate on tokens without being their owner."
          }
        }
      ],
      "ERC721InvalidOwner(address)": [
        {
          "details": "Indicates that an address can't be an owner. For example, `address(0)` is a forbidden owner in EIP-20. Used in balance queries.",
          "params": {
            "owner": "Address of the current owner of a token."
          }
        }
      ],
      "ERC721InvalidReceiver(address)": [
        {
          "details": "Indicates a failure with the token `receiver`. Used in transfers.",
          "params": {
            "receiver": "Address to which tokens are being transferred."
          }
        }
      ],
      "ERC721InvalidSender(address)": [
        {
          "details": "Indicates a failure with the token `sender`. Used in transfers.",
          "params": {
            "sender": "Address whose tokens are being transferred."
          }
        }
      ],
      "ERC721NonexistentToken(uint256)": [
        {
          "details": "Indicates a `tokenId` whose `owner` is the zero address.",
          "params": {
            "tokenId": "Identifier number of a token."
          }
        }
      ]
    },
    "events": {
      "Approval(address,address,uint256)": {
        "details": "Emitted when `owner` enables `approved` to manage the `tokenId` token."
      },
      "ApprovalForAll(address,address,bool)": {
        "details": "Emitted when `owner` enables or disables (`approved`) `operator` to manage all of its assets."
      },
      "Transfer(address,address,uint256)": {
        "details": "Emitted when `tokenId` token is transferred from `from` to `to`."
      }
    },
    "kind": "dev",
    "methods": {
      "approve(address,uint256)": {
        "details": "See {IERC721-approve}."
      },
      "balanceOf(address)": {
        "details": "See {IERC721-balanceOf}."
      },
      "constructor": {
        "params": {
          "_vrfCoordinator": "the VRF Coordinator Address",
          "callbackGasLimit": "maximum Gas Limit",
          "dogTokenUris": "the tokenUris of NFT on the IPFS Network",
          "gasLane": "Key Hash for the respective Blockchain",
          "mintFee": "minimum mint fee required to mint an NFT",
          "susbscriptionId": "of the Chainlink VRF Contract"
        }
      },
      "getApproved(uint256)": {
        "details": "See {IERC721-getApproved}."
      },
      "getAuthor()": {
        "details": "a function to return the Author of the contract"
      },
      "getBreedFromModdedRng(uint256)": {
        "details": "a function to return the minted NFT",
        "params": {
          "moddedRng": "the chance scored in fulfilrandomwords"
        },
        "returns": {
          "_0": "returns Breed of the minted NFT"
        }
      },
      "getChanceArray()": {
        "details": "a function to return the chances to secure each NFT",
        "returns": {
          "_0": "returns a array containing the probabilites of obtaining a particular NFT"
        }
      },
      "getDogTokenUris(uint256)": {
        "details": "a function to fetch the token uri using its index",
        "params": {
          "index": "the index of the token"
        }
      },
      "getInitialized()": {
        "details": "a function called by the constructor to initialize the contact"
      },
      "getMintFee()": {
        "details": "a getter function to get the mint Fees",
        "returns": {
          "_0": "returns the mint fee"
        }
      },
      "getTokenCounter()": {
        "details": "a function to get the current token counter from the blockchain",
        "returns": {
          "_0": "returns tokenCounter"
        }
      },
      "isApprovedForAll(address,address)": {
        "details": "See {IERC721-isApprovedForAll}."
      },
      "name()": {
        "details": "See {IERC721Metadata-name}."
      },
      "ownerOf(uint256)": {
        "details": "See {IERC721-ownerOf}."
      },
      "requestNft()": {
        "details": "A function called by the user to request an NFT, sends the call to Chainlink VRF to request a random number."
      },
      "safeTransferFrom(address,address,uint256)": {
        "details": "See {IERC721-safeTransferFrom}."
      },
      "safeTransferFrom(address,address,uint256,bytes)": {
        "details": "See {IERC721-safeTransferFrom}."
      },
      "setApprovalForAll(address,bool)": {
        "details": "See {IERC721-setApprovalForAll}."
      },
      "supportsInterface(bytes4)": {
        "details": "See {IERC165-supportsInterface}."
      },
      "symbol()": {
        "details": "See {IERC721Metadata-symbol}."
      },
      "tokenURI(uint256)": {
        "details": "a function to retrive the token URI associated with a token Id",
        "params": {
          "_tokenId": "takes a token Id as a param to retrive the token URI"
        }
      },
      "transferFrom(address,address,uint256)": {
        "details": "See {IERC721-transferFrom}."
      },
      "withdraw()": {
        "details": "A function to withdraw the funds in the owners Account"
      }
    },
    "title": "Random NFT Contract",
    "version": 1
  },
  "userdoc": {
    "kind": "user",
    "methods": {
      "acceptOwnership()": {
        "notice": "Allows an ownership transfer to be completed by the recipient."
      },
      "owner()": {
        "notice": "Get the current owner"
      },
      "setCoordinator(address)": {
        "notice": "Sets the VRF Coordinator addressThis method should only be callable by the coordinator or contract owner"
      },
      "transferOwnership(address)": {
        "notice": "Allows an owner to begin transferring ownership to a new address."
      }
    },
    "notice": "A Contract which mints NFT stored on IPFS network",
    "version": 1
  },
  "storageLayout": {
    "storage": [
      {
        "astId": 29,
        "contract": "contracts/RandomIpfsNft.sol:RandomIpfsNft",
        "label": "s_owner",
        "offset": 0,
        "slot": "0",
        "type": "t_address"
      },
      {
        "astId": 31,
        "contract": "contracts/RandomIpfsNft.sol:RandomIpfsNft",
        "label": "s_pendingOwner",
        "offset": 0,
        "slot": "1",
        "type": "t_address"
      },
      {
        "astId": 1262,
        "contract": "contracts/RandomIpfsNft.sol:RandomIpfsNft",
        "label": "s_vrfCoordinator",
        "offset": 0,
        "slot": "2",
        "type": "t_contract(IVRFCoordinatorV2Plus)1411"
      },
      {
        "astId": 1874,
        "contract": "contracts/RandomIpfsNft.sol:RandomIpfsNft",
        "label": "_name",
        "offset": 0,
        "slot": "3",
        "type": "t_string_storage"
      },
      {
        "astId": 1876,
        "contract": "contracts/RandomIpfsNft.sol:RandomIpfsNft",
        "label": "_symbol",
        "offset": 0,
        "slot": "4",
        "type": "t_string_storage"
      },
      {
        "astId": 1880,
        "contract": "contracts/RandomIpfsNft.sol:RandomIpfsNft",
        "label": "_owners",
        "offset": 0,
        "slot": "5",
        "type": "t_mapping(t_uint256,t_address)"
      },
      {
        "astId": 1884,
        "contract": "contracts/RandomIpfsNft.sol:RandomIpfsNft",
        "label": "_balances",
        "offset": 0,
        "slot": "6",
        "type": "t_mapping(t_address,t_uint256)"
      },
      {
        "astId": 1888,
        "contract": "contracts/RandomIpfsNft.sol:RandomIpfsNft",
        "label": "_tokenApprovals",
        "offset": 0,
        "slot": "7",
        "type": "t_mapping(t_uint256,t_address)"
      },
      {
        "astId": 1894,
        "contract": "contracts/RandomIpfsNft.sol:RandomIpfsNft",
        "label": "_operatorApprovals",
        "offset": 0,
        "slot": "8",
        "type": "t_mapping(t_address,t_mapping(t_address,t_bool))"
      },
      {
        "astId": 4997,
        "contract": "contracts/RandomIpfsNft.sol:RandomIpfsNft",
        "label": "s_owner",
        "offset": 0,
        "slot": "9",
        "type": "t_address"
      },
      {
        "astId": 5004,
        "contract": "contracts/RandomIpfsNft.sol:RandomIpfsNft",
        "label": "s_requestIdToAddress",
        "offset": 0,
        "slot": "10",
        "type": "t_mapping(t_uint256,t_address)"
      },
      {
        "astId": 5008,
        "contract": "contracts/RandomIpfsNft.sol:RandomIpfsNft",
        "label": "s_tokenCounter",
        "offset": 0,
        "slot": "11",
        "type": "t_uint256"
      },
      {
        "astId": 5014,
        "contract": "contracts/RandomIpfsNft.sol:RandomIpfsNft",
        "label": "s_dogTokenUris",
        "offset": 0,
        "slot": "12",
        "type": "t_array(t_string_storage)dyn_storage"
      },
      {
        "astId": 5016,
        "contract": "contracts/RandomIpfsNft.sol:RandomIpfsNft",
        "label": "s_initialized",
        "offset": 0,
        "slot": "13",
        "type": "t_bool"
      },
      {
        "astId": 5020,
        "contract": "contracts/RandomIpfsNft.sol:RandomIpfsNft",
        "label": "_tokenURIs",
        "offset": 0,
        "slot": "14",
        "type": "t_mapping(t_uint256,t_string_storage)"
      }
    ],
    "types": {
      "t_address": {
        "encoding": "inplace",
        "label": "address",
        "numberOfBytes": "20"
      },
      "t_array(t_string_storage)dyn_storage": {
        "base": "t_string_storage",
        "encoding": "dynamic_array",
        "label": "string[]",
        "numberOfBytes": "32"
      },
      "t_bool": {
        "encoding": "inplace",
        "label": "bool",
        "numberOfBytes": "1"
      },
      "t_contract(IVRFCoordinatorV2Plus)1411": {
        "encoding": "inplace",
        "label": "contract IVRFCoordinatorV2Plus",
        "numberOfBytes": "20"
      },
      "t_mapping(t_address,t_bool)": {
        "encoding": "mapping",
        "key": "t_address",
        "label": "mapping(address => bool)",
        "numberOfBytes": "32",
        "value": "t_bool"
      },
      "t_mapping(t_address,t_mapping(t_address,t_bool))": {
        "encoding": "mapping",
        "key": "t_address",
        "label": "mapping(address => mapping(address => bool))",
        "numberOfBytes": "32",
        "value": "t_mapping(t_address,t_bool)"
      },
      "t_mapping(t_address,t_uint256)": {
        "encoding": "mapping",
        "key": "t_address",
        "label": "mapping(address => uint256)",
        "numberOfBytes": "32",
        "value": "t_uint256"
      },
      "t_mapping(t_uint256,t_address)": {
        "encoding": "mapping",
        "key": "t_uint256",
        "label": "mapping(uint256 => address)",
        "numberOfBytes": "32",
        "value": "t_address"
      },
      "t_mapping(t_uint256,t_string_storage)": {
        "encoding": "mapping",
        "key": "t_uint256",
        "label": "mapping(uint256 => string)",
        "numberOfBytes": "32",
        "value": "t_string_storage"
      },
      "t_string_storage": {
        "encoding": "bytes",
        "label": "string",
        "numberOfBytes": "32"
      },
      "t_uint256": {
        "encoding": "inplace",
        "label": "uint256",
        "numberOfBytes": "32"
      }
    }
  }
}